:020000040000FA
:040000004CEF0BF0C6
:100800000054656D703A2025640054656D703A207F
:1008100000001EC036F01FC037F020C038F021C0E5
:1008200039F022C03AF023C03BF024C03CF025C090
:100830003DF03DBE1EEF04F021EF04F0010E22EF6B
:1008400004F0000E346E356A34503510D8B42BEFF6
:1008500004F02DEF04F03DEF04F03D1E3C1E3B1E66
:100860003A1E391E381E371E366C000E37223822CB
:1008700039223A223B223C223D22000165BF43EF50
:1008800004F045EF04F046EF04F0669365BF53EFC4
:1008900004F0655106E16405D8B051EF04F053EF60
:1008A00004F059EF04F0000E316E010E306E5DEF72
:1008B00004F064C030F065C031F062C032F063C053
:1008C00033F034503510D8A468EF04F06AEF04F028
:1008D00071EF04F066A56FEF04F071EF04F074EFB0
:1008E00004F03206D8A03306000E3F6E1F0E3E6E97
:1008F000000E896FF8EF04F03E06D8A03F066A0E9E
:100900003E24D96E000E3F20DA6E36C001F037C0AB
:1009100002F038C003F039C004F03AC005F03BC023
:1009200006F03CC007F03DC008F00A0E096E000E4C
:100930000A6E000E0B6E000E0C6E000E0D6E000E99
:100940000E6E000E0F6E000E106E18EC07F001C058
:1009500026F002C027F003C028F004C029F005C02B
:100960002AF006C02BF007C02CF008C02DF026C0DE
:1009700013F028C014F011EC0BF01350300FDF6EA1
:100980003006D8A031063206D8A0330636C001F0B2
:1009900037C002F038C003F039C004F03AC005F0A7
:1009A0003BC006F03CC007F03DC008F00A0E096EDF
:1009B000000E0A6E000E0B6E000E0C6E000E0D6E19
:1009C000000E0E6E000E0F6E000E106E54EC06F050
:1009D00001C036F002C037F003C038F004C039F06F
:1009E00005C03AF006C03BF007C03CF008C03DF03F
:1009F0003FBE03EF05F03F5008E13E04D8A003EFEF
:100A000005F005EF05F036EF05F0365037103810D9
:100A100039103A103B103C103D10D8A412EF05F0ED
:100A200014EF05F07CEF04F031BE21EF05F03150FA
:100A300006E13004D8B01FEF05F021EF05F07CEFA0
:100A400004F033BE2CEF05F0335008E13204D8A097
:100A50002CEF05F02EEF05F036EF05F0000166B340
:100A600034EF05F036EF05F07CEF04F0345035102C
:100A7000D8A43DEF05F03FEF05F047EF05F000018A
:100A800066A545EF05F047EF05F065EF05F03E067A
:100A9000D8A03F0634503510D8A451EF05F053EFDD
:100AA00005F059EF05F0000E2F6E2B0E2E6E5DEF48
:100AB00005F0000E2F6E2D0E2E6E6A0E3E24D96E9E
:100AC000000E3F20DA6E2EC0DFFF1CC011F01DC0EB
:100AD00012F06A0E3E24136E000E3F20146E32C0D8
:100AE00015F033C016F02FEC08F011C01CF012C046
:100AF0001DF0120042C0D9FF43C0DAFFDECFF6FF7F
:100B0000DDCFF7FF0800F550250AD8A48AEF05F0DD
:100B10008CEF05F038EF06F042C0D9FF43C0DAFF92
:100B2000DE2A000EDD22000E0001636F000E626FF0
:100B300062C066F063C067F06469656942C0D9FF4E
:100B400043C0DAFFDECFF6FFDDCFF7FF0800F55038
:100B5000640AD8B4AEEF05F0B0EF05F0C2EF05F0CF
:100B600042C0D9FF43C0DAFFDECFF6FFDDCFF7FF8B
:100B70000800F550690AD8A4C0EF05F0C2EF05F0EF
:100B800002EF06F042C0D9FF43C0DAFFDE2A000EB2
:100B9000DD2244C0D9FF45C0DAFFDFCF46F0020EA8
:100BA000DE26DFCF47F0000EDD2246C0D9FF47C06A
:100BB000DAFFDECF48F0DDCF49F0000E49BEFF0E70
:100BC0004A6E4B6E4C6E4D6E4E6E4F6E40C01CF0BA
:100BD00041C01DF048C01EF049C01FF04AC020F0BF
:100BE0004BC021F04CC022F04DC023F04EC024F089
:100BF0004FC025F009EC04F01CC040F01DC041F0CE
:100C000053EF06F042C0D9FF43C0DAFFDECFF6FF54
:100C1000DDCFF7FF0800F550250AD8A412EF06F043
:100C200014EF06F02BEF06F042C0D9FF43C0DAFF05
:100C3000DE2A000EDD22000E026E250E016E40C07F
:100C400003F041C004F0CAEC07F0000E416E010E43
:100C5000406E53EF06F042C0D9FF43C0DAFFDE2AF0
:100C6000000EDD22000E416E000E406E53EF06F0C6
:100C700042C0D9FF43C0DAFFDECFF6FFDDCFF7FF7A
:100C80000800F550016E026A40C003F041C004F054
:100C9000CAEC07F042C0D9FF43C0DAFFDE2A000EDB
:100CA000DD2225EF06F01200000E126E10BE5DEF81
:100CB00006F05BEF06F06FEF06F0101E0F1E0E1E23
:100CC0000D1E0C1E0B1E0A1E096C000E0A220B22A2
:100CD0000C220D220E220F221022010E126E08BECF
:100CE00076EF06F074EF06F088EF06F0081E071E98
:100CF000061E051E041E031E021E016C000E0222AB
:100D0000032204220522062207220822010E121ABB
:100D100020EE13F0070EDE6AE806FDE209500A1025
:100D20000B100C100D100E100F101010D8B49BEFFC
:100D300006F09DEF06F0EFEF06F0010E116EABEF3F
:100D400006F0D89009360A360B360C360D360E36BC
:100D50000F361036112A10AEB0EF06F0B2EF06F0E3
:100D6000A1EF06F0D890133614361536163617361E
:100D7000183619361A360950015C0A5002580B50C1
:100D800003580C5004580D5005580E5006580F507B
:100D9000075810500858D8A0D0EF06F0D2EF06F050
:100DA000E3EF06F00950015E0A50025A0B50035A55
:100DB0000C50045A0D50055A0E50065A0F50075A3F
:100DC0001050085A1380D89010320F320E320D3264
:100DD0000C320B320A320932112EB2EF06F01250E9
:100DE000D8B4F5EF06F0F7EF06F007EF07F01A1E9C
:100DF000191E181E171E161E151E141E136C000E2B
:100E00001422152216221722182219221A2213C080
:100E100001F014C002F015C003F016C004F017C0B2
:100E200005F018C006F019C007F01AC008F012004B
:100E3000000E126E08BE21EF07F01FEF07F033EF30
:100E400007F0081E071E061E051E041E031E021EB6
:100E5000016C000E02220322042205220622072230
:100E60000822010E126E10BE3AEF07F038EF07F0BD
:100E70004AEF07F0101E0F1E0E1E0D1E0C1E0B1E3D
:100E80000A1E096C000E0A220B220C220D220E22D1
:100E90000F22102209500A100B100C100D100E100A
:100EA0000F101010D8B457EF07F059EF07F0A1EF6B
:100EB00007F0010E116E67EF07F0D89009360A3679
:100EC0000B360C360D360E360F361036112A10AE94
:100ED0006CEF07F06EEF07F05DEF07F00950015C73
:100EE0000A5002580B5003580C5004580D50055826
:100EF0000E5006580F50075810500858D8A083EFCE
:100F000007F085EF07F095EF07F00950015E0A50F2
:100F1000025A0B50035A0C50045A0D50055A0E50E9
:100F2000065A0F50075A1050085AD89010320F32F4
:100F30000E320D320C320B320A320932112E6EEFA4
:100F400007F01250D8B4A7EF07F0A9EF07F0B9EFF8
:100F500007F0081E071E061E051E041E031E021EA5
:100F6000016C000E0222032204220522062207221F
:100F7000082201C001F002C002F003C003F004C067
:100F800004F005C005F006C006F007C007F008C071
:100F900008F0120003500410D8B4D1EF07F0D3EFDB
:100FA00007F0DCEF07F003500410D8A4DAEF07F0E5
:100FB000DCEF07F0E1EF07F001505EEC0BF02EEFF5
:100FC00008F020EE04F00350D9260450DA22DE5057
:100FD000DE10D8B4EEEF07F0F0EF07F00BEF08F0FB
:100FE00020EE04F00350D9260450DA2210EE02F06D
:100FF0000350E1260450E222DE50E65CE650800A0F
:10100000096EDE50800A0958D8B009EF08F00BEFDE
:1010100008F02EEF08F020EE02F00350D92604501D
:10102000DA22DECF05F0DDCF06F003C0D9FF04C021
:10103000DAFFDECF07F0DDCF08F005500724D96EC8
:1010400006500820DA6E01C0DFFF20EE02F00350E8
:10105000D9260450DA22DE2A000EDD221200000119
:1010600066A135EF08F037EF08F041EF08F013C044
:101070000AF014C00BF011C00CF012C00DF0EFEC30
:101080000AF016BE46EF08F048EF08F04EEF08F001
:1010900015C01AF016C01BF052EF08F0000E1B6EC0
:1010A000000E1A6E000E196E000E186E64EF08F036
:1010B000000E026E200E016E11C003F012C004F08B
:1010C000CAEC07F0184A192A1A50185C1950800AFD
:1010D000176E1B50800A1758D8A071EF08F073EFF5
:1010E00008F058EF08F0000166B179EF08F07BEFE7
:1010F00008F085EF08F013C00AF014C00BF011C01F
:101100000CF012C00DF0EFEC0AF013C001F014C0A7
:1011100002F031EC0BF01A500124116E1B5002202A
:10112000126E120095909592959E959C959A959821
:10113000839E839C839A839883908392140E056E7A
:101140007A0EE82EFED7052EFCD7000E026E030E97
:10115000016E80EC09F0060E056E300EE82EFED70B
:10116000052EFCD700D0000E026E030E016E80EC3F
:1011700009F0000E026E030E016E80EC09F0000E05
:10118000026E030E016E80EC09F0000E026E020E7C
:10119000016E80EC09F0000E026E020E016E80EC12
:1011A00009F0000E026E0B0E016E80EC09F0000ECD
:1011B000026E000E016E80EC09F0000E026E0F0E42
:1011C000016E80EC09F01A0E056EF80EE82EFED7BF
:1011D000052EFCD700D012000B6E839083920BC0BB
:1011E00005F0100E05160BC006F0200E06160BC0FB
:1011F00007F0400E07160B50800B07100610051065
:10120000086E0850096E0A6A09C005F00AC006F0A7
:10121000040E076E063406320532072E0AEF09F077
:1012200005C001F006C002F080EC09F00BC005F02B
:10123000010E05160BC006F0020E06160BC007F0D5
:10124000040E07160B50080B071006100510086E49
:101250000850096E0A6A09C001F00AC002F080EC69
:1012600009F0210EE82EFED700F012000B6E8380ED
:1012700083920BC005F0100E05160BC006F0200E71
:1012800006160BC007F0400E07160B50800B071018
:1012900006100510086E0850096E0A6A09C005F0AC
:1012A0000AC006F0040E076E063406320532072E19
:1012B00054EF09F005C001F006C002F080EC09F01F
:1012C0000BC005F0010E05160BC006F0020E061647
:1012D0000BC007F0040E07160B50080B0710061082
:1012E0000510086E0850096E0A6A09C001F00AC0AC
:1012F00002F080EC09F0210EE82EFED700F012007B
:1013000001C003F002C004F0043404320332043498
:1013100004320332043404320332010E0316033262
:101320000332835003187F0B0318836E01C003F050
:1013300002C004F0043404320332043404320332B1
:10134000010E0316033A0346034683500318BF0BEE
:101350000318836E02340230046E0130036E010EF6
:101360000316033A034683500318DF0B0318836EFA
:1013700001C003F0010E0316033A83500318EF0B6C
:101380000318836E57EC0BF0210EE82EFED700F009
:1013900012000F0EC16E92EC08F00C0EECEC08F08F
:1013A000010EECEC08F0000E0D6E010E0C6E000E3E
:1013B0000F6E010E0E6E0A0E106E080E116E55ECB9
:1013C0000AF08A0E586E000E596E010E5A6E080E03
:1013D0005B6E68C05CF069C05DF0C6EC0AF0000EA0
:1013E0000D6E010E0C6E000E0F6E010E0E6E8A0E4B
:1013F000106E000E116E55EC0AF00001684B692B5F
:10140000020E5F6E040E5E6EBA0EE82EFED75E2EE2
:10141000FCD75F2EFAD700D0E1EF09F000EF00F023
:1014200032EF0AF07F0E0324076E000E0420086ED0
:1014300050EF0AF0BF0E0324076E000E0420086E62
:1014400050EF0AF0930E0324076E000E0420086E7E
:1014500050EF0AF0D30E0324076E000E0420086E2E
:1014600050EF0AF001C005F002C006F00650000A75
:10147000D8B43DEF0AF050EF0AF00550010AD8B495
:1014800012EF0AF0030AD8B41AEF0AF0010AD8B42E
:1014900022EF0AF0070AD8B42AEF0AF050EF0AF058
:1014A00007C001F008C002F012000CC001F00DC02E
:1014B00002F00EC003F00FC004F010EC0AF001C0FF
:1014C00012F002C013F01250ECEC08F07CEF0AF0BE
:1014D00010C0F6FF11C0F7FFF86A070EF76403D0DB
:1014E0000800F55005D0F6CFE1FFF7CFE2FFE75057
:1014F00036EC09F0104A112A10C0F6FF11C0F7FFB0
:10150000F86A070EF76403D00800F55005D0F6CF4F
:10151000E1FFF7CFE2FFE7500009D8A492EF0AF00D
:1015200094EF0AF068EF0AF0120052C056F053C070
:1015300057F0000E0001616F000E606FB3EF0AF00C
:1015400050C040F051C041F0560E426E000E436E46
:1015500054C044F055C045F07AEC05F0405000010D
:1015600060274150612356C0F6FF57C0F7FF0800BF
:10157000F5500009D8A4BFEF0AF0C1EF0AF0A0EFC0
:101580000AF060C050F061C051F012005C0E000122
:10159000A06F000EA16F58C0A2F059C0A3F0000EBA
:1015A000A56F000EA46F000EA76F000EA66FA20E0F
:1015B000506E000E516E5AC052F05BC053F0A00E38
:1015C000546E000E556E95EC0AF00001A45158249B
:1015D000D96EA5515920DA6E000EDF6E1200000E92
:1015E000106E000E0F6E00EF0BF00EC001F0026ADD
:1015F0000CC003F00DC004F0CAEC07F00F4A102A2B
:101600000F500A24D96E10500B20DA6EDF500E6E88
:101610000E50D8A40EEF0BF010EF0BF0F5EF0AF020
:10162000120014BE1EEF0BF0145006E11304D8B0E4
:101630001CEF0BF01EEF0BF02CEF0BF013C015F0AE
:1016400014C016F0151E161E154A162A15C013F0E2
:1016500016C014F030EF0BF013C013F014C014F0E8
:10166000120001C003F002C004F039EF0BF0014A90
:10167000022A01C0D9FF02C0DAFFDF50D8A443EF2D
:101680000BF045EF0BF037EF0BF00350015C016EF0
:1016900004500258026E120000EE60F03E0EEE6A38
:1016A000E806FDE1000EF86E0001C9EF09F0838243
:0E16B000030EE82EFED700F083921200120007
:020000040020DA
:08000000FFFFFFFFFFFFFFFF00
:020000040030CA
:0E000000000C191EFF8381FF0FC00FE00F40A0
:00000001FF
